{
  "contractName": "IPP",
  "abi": [
    {
      "anonymous": false,
      "inputs": [
        {
          "indexed": false,
          "internalType": "string",
          "name": "fileHash",
          "type": "string"
        },
        {
          "indexed": false,
          "internalType": "string",
          "name": "cid",
          "type": "string"
        },
        {
          "indexed": false,
          "internalType": "string",
          "name": "owner",
          "type": "string"
        },
        {
          "indexed": false,
          "internalType": "uint256",
          "name": "timestamp",
          "type": "uint256"
        }
      ],
      "name": "AssetStored",
      "type": "event"
    },
    {
      "inputs": [
        {
          "internalType": "string",
          "name": "_fileHash",
          "type": "string"
        },
        {
          "internalType": "string",
          "name": "_cid",
          "type": "string"
        },
        {
          "internalType": "string",
          "name": "_owner",
          "type": "string"
        }
      ],
      "name": "storeAsset",
      "outputs": [],
      "stateMutability": "nonpayable",
      "type": "function"
    },
    {
      "inputs": [
        {
          "internalType": "string",
          "name": "_fileHash",
          "type": "string"
        }
      ],
      "name": "getAsset",
      "outputs": [
        {
          "internalType": "string",
          "name": "",
          "type": "string"
        },
        {
          "internalType": "string",
          "name": "",
          "type": "string"
        },
        {
          "internalType": "string",
          "name": "",
          "type": "string"
        },
        {
          "internalType": "uint256",
          "name": "",
          "type": "uint256"
        }
      ],
      "stateMutability": "view",
      "type": "function",
      "constant": true
    }
  ],
  "bytecode": "0x608060405234801561001057600080fd5b506108cd806100206000396000f3fe608060405234801561001057600080fd5b50600436106100365760003560e01c8063075919a81461003b578063cd5286d014610057575b600080fd5b61005560048036038101906100509190610541565b61008a565b005b610071600480360381019061006c9190610500565b6101de565b60405161008194939291906106a8565b60405180910390f35b6000808460405161009b9190610691565b908152602001604051809103902060000180546100b7906107f6565b9050146100f9576040517f08c379a00000000000000000000000000000000000000000000000000000000081526004016100f090610702565b60405180910390fd5b60405180608001604052808481526020018381526020018281526020014281525060008460405161012a9190610691565b908152602001604051809103902060008201518160000190805190602001906101549291906103f5565b5060208201518160010190805190602001906101719291906103f5565b50604082015181600201908051906020019061018e9291906103f5565b50606082015181600301559050507f08167e34cb69b9b19bb697664de5f2637b3ac5c5fad26fd716712b96821633b7838383426040516101d194939291906106a8565b60405180910390a1505050565b60608060606000806000866040516101f69190610691565b908152602001604051809103902060405180608001604052908160008201805461021f906107f6565b80601f016020809104026020016040519081016040528092919081815260200182805461024b906107f6565b80156102985780601f1061026d57610100808354040283529160200191610298565b820191906000526020600020905b81548152906001019060200180831161027b57829003601f168201915b505050505081526020016001820180546102b1906107f6565b80601f01602080910402602001604051908101604052809291908181526020018280546102dd906107f6565b801561032a5780601f106102ff5761010080835404028352916020019161032a565b820191906000526020600020905b81548152906001019060200180831161030d57829003601f168201915b50505050508152602001600282018054610343906107f6565b80601f016020809104026020016040519081016040528092919081815260200182805461036f906107f6565b80156103bc5780601f10610391576101008083540402835291602001916103bc565b820191906000526020600020905b81548152906001019060200180831161039f57829003601f168201915b50505050508152602001600382015481525050905080600001518160200151826040015183606001519450945094509450509193509193565b828054610401906107f6565b90600052602060002090601f016020900481019282610423576000855561046a565b82601f1061043c57805160ff191683800117855561046a565b8280016001018555821561046a579182015b8281111561046957825182559160200191906001019061044e565b5b509050610477919061047b565b5090565b5b8082111561049457600081600090555060010161047c565b5090565b60006104ab6104a684610753565b610722565b9050828152602081018484840111156104c357600080fd5b6104ce8482856107b4565b509392505050565b600082601f8301126104e757600080fd5b81356104f7848260208601610498565b91505092915050565b60006020828403121561051257600080fd5b600082013567ffffffffffffffff81111561052c57600080fd5b610538848285016104d6565b91505092915050565b60008060006060848603121561055657600080fd5b600084013567ffffffffffffffff81111561057057600080fd5b61057c868287016104d6565b935050602084013567ffffffffffffffff81111561059957600080fd5b6105a5868287016104d6565b925050604084013567ffffffffffffffff8111156105c257600080fd5b6105ce868287016104d6565b9150509250925092565b60006105e382610783565b6105ed818561078e565b93506105fd8185602086016107c3565b61060681610886565b840191505092915050565b600061061c82610783565b610626818561079f565b93506106368185602086016107c3565b80840191505092915050565b600061064f60148361078e565b91507f417373657420616c7265616479206578697374730000000000000000000000006000830152602082019050919050565b61068b816107aa565b82525050565b600061069d8284610611565b915081905092915050565b600060808201905081810360008301526106c281876105d8565b905081810360208301526106d681866105d8565b905081810360408301526106ea81856105d8565b90506106f96060830184610682565b95945050505050565b6000602082019050818103600083015261071b81610642565b9050919050565b6000604051905081810181811067ffffffffffffffff8211171561074957610748610857565b5b8060405250919050565b600067ffffffffffffffff82111561076e5761076d610857565b5b601f19601f8301169050602081019050919050565b600081519050919050565b600082825260208201905092915050565b600081905092915050565b6000819050919050565b82818337600083830152505050565b60005b838110156107e15780820151818401526020810190506107c6565b838111156107f0576000848401525b50505050565b6000600282049050600182168061080e57607f821691505b6020821081141561082257610821610828565b5b50919050565b7f4e487b7100000000000000000000000000000000000000000000000000000000600052602260045260246000fd5b7f4e487b7100000000000000000000000000000000000000000000000000000000600052604160045260246000fd5b6000601f19601f830116905091905056fea2646970667358221220cfd261a313431e9b17e694a3b6b8738eb87557342a4b270b558d5e14aabec99364736f6c63430008000033",
  "immutableReferences": {},
  "source": "// SPDX-License-Identifier: MIT\r\npragma solidity ^0.8.0;\r\n\r\ncontract IPP {\r\n\r\n    struct Asset {\r\n        string fileHash;\r\n        string cid;\r\n        string owner;\r\n        uint256 timestamp;\r\n    }\r\n\r\n    // fileHash => Asset\r\n    mapping(string => Asset) private assets;\r\n\r\n    // Event for logging\r\n    event AssetStored(\r\n        string fileHash,\r\n        string cid,\r\n        string owner,\r\n        uint256 timestamp\r\n    );\r\n\r\n    /**\r\n     * Store IP asset proof\r\n     */\r\n    function storeAsset(\r\n        string memory _fileHash,\r\n        string memory _cid,\r\n        string memory _owner\r\n    ) public {\r\n        require(bytes(assets[_fileHash].fileHash).length == 0,\r\n            \"Asset already exists\");\r\n\r\n        assets[_fileHash] = Asset({\r\n            fileHash: _fileHash,\r\n            cid: _cid,\r\n            owner: _owner,\r\n            timestamp: block.timestamp\r\n        });\r\n\r\n        emit AssetStored(_fileHash, _cid, _owner, block.timestamp);\r\n    }\r\n\r\n    /**\r\n     * Retrieve asset details\r\n     */\r\n    function getAsset(string memory _fileHash)\r\n        public\r\n        view\r\n        returns (\r\n            string memory,\r\n            string memory,\r\n            string memory,\r\n            uint256\r\n        )\r\n    {\r\n        Asset memory asset = assets[_fileHash];\r\n        return (\r\n            asset.fileHash,\r\n            asset.cid,\r\n            asset.owner,\r\n            asset.timestamp\r\n        );\r\n    }\r\n}\r\n",
  "sourcePath": "C:\\Users\\SANGESHRAJ\\Desktop\\PROJECT FYP\\blockchain\\contracts\\IPP.sol",
  "compiler": {
    "name": "solc",
    "version": "0.8.0+commit.c7dfd78e.Emscripten.clang"
  },
  "schemaVersion": "3.4.16",
  "updatedAt": "2026-04-30T11:12:55.520Z",
  "networkType": "ethereum",
  "devdoc": {
    "kind": "dev",
    "methods": {},
    "version": 1
  },
  "userdoc": {
    "kind": "user",
    "methods": {
      "getAsset(string)": {
        "notice": "Retrieve asset details"
      },
      "storeAsset(string,string,string)": {
        "notice": "Store IP asset proof"
      }
    },
    "version": 1
  }
}